{
  "_format": "hh-sol-artifact-1",
  "contractName": "AlbumArt",
  "sourceName": "contracts/AlbumArt.sol",
  "abi": [
    {
      "anonymous": false,
      "inputs": [
        {
          "indexed": true,
          "internalType": "address",
          "name": "previousOwner",
          "type": "address"
        },
        {
          "indexed": true,
          "internalType": "address",
          "name": "newOwner",
          "type": "address"
        }
      ],
      "name": "OwnershipTransferred",
      "type": "event"
    },
    {
      "inputs": [],
      "name": "owner",
      "outputs": [
        {
          "internalType": "address",
          "name": "",
          "type": "address"
        }
      ],
      "stateMutability": "view",
      "type": "function"
    },
    {
      "inputs": [],
      "name": "renounceOwnership",
      "outputs": [],
      "stateMutability": "nonpayable",
      "type": "function"
    },
    {
      "inputs": [],
      "name": "returnMany",
      "outputs": [
        {
          "internalType": "uint256",
          "name": "",
          "type": "uint256"
        },
        {
          "internalType": "bool",
          "name": "",
          "type": "bool"
        },
        {
          "internalType": "uint256",
          "name": "",
          "type": "uint256"
        }
      ],
      "stateMutability": "pure",
      "type": "function"
    },
    {
      "inputs": [
        {
          "internalType": "address",
          "name": "newOwner",
          "type": "address"
        }
      ],
      "name": "transferOwnership",
      "outputs": [],
      "stateMutability": "nonpayable",
      "type": "function"
    }
  ],
  "bytecode": "0x608060405234801561001057600080fd5b5061002d61002261003260201b60201c565b61003a60201b60201c565b6100fe565b600033905090565b60008060009054906101000a900473ffffffffffffffffffffffffffffffffffffffff169050816000806101000a81548173ffffffffffffffffffffffffffffffffffffffff021916908373ffffffffffffffffffffffffffffffffffffffff1602179055508173ffffffffffffffffffffffffffffffffffffffff168173ffffffffffffffffffffffffffffffffffffffff167f8be0079c531659141344cd1fd0a4f28419497f9722a3daafe3b4186f6b6457e060405160405180910390a35050565b6105a08061010d6000396000f3fe608060405234801561001057600080fd5b506004361061004c5760003560e01c8063715018a614610051578063868875441461005b5780638da5cb5b1461007b578063f2fde38b14610099575b600080fd5b6100596100b5565b005b61006361013d565b6040516100729392919061044b565b60405180910390f35b610083610152565b60405161009091906103f0565b60405180910390f35b6100b360048036038101906100ae9190610354565b61017b565b005b6100bd610273565b73ffffffffffffffffffffffffffffffffffffffff166100db610152565b73ffffffffffffffffffffffffffffffffffffffff1614610131576040517f08c379a00000000000000000000000000000000000000000000000000000000081526004016101289061042b565b60405180910390fd5b61013b600061027b565b565b60008060006001806002925092509250909192565b60008060009054906101000a900473ffffffffffffffffffffffffffffffffffffffff16905090565b610183610273565b73ffffffffffffffffffffffffffffffffffffffff166101a1610152565b73ffffffffffffffffffffffffffffffffffffffff16146101f7576040517f08c379a00000000000000000000000000000000000000000000000000000000081526004016101ee9061042b565b60405180910390fd5b600073ffffffffffffffffffffffffffffffffffffffff168173ffffffffffffffffffffffffffffffffffffffff161415610267576040517f08c379a000000000000000000000000000000000000000000000000000000000815260040161025e9061040b565b60405180910390fd5b6102708161027b565b50565b600033905090565b60008060009054906101000a900473ffffffffffffffffffffffffffffffffffffffff169050816000806101000a81548173ffffffffffffffffffffffffffffffffffffffff021916908373ffffffffffffffffffffffffffffffffffffffff1602179055508173ffffffffffffffffffffffffffffffffffffffff168173ffffffffffffffffffffffffffffffffffffffff167f8be0079c531659141344cd1fd0a4f28419497f9722a3daafe3b4186f6b6457e060405160405180910390a35050565b60008135905061034e81610553565b92915050565b60006020828403121561036657600080fd5b60006103748482850161033f565b91505092915050565b61038681610493565b82525050565b610395816104a5565b82525050565b60006103a8602683610482565b91506103b3826104db565b604082019050919050565b60006103cb602083610482565b91506103d68261052a565b602082019050919050565b6103ea816104d1565b82525050565b6000602082019050610405600083018461037d565b92915050565b600060208201905081810360008301526104248161039b565b9050919050565b60006020820190508181036000830152610444816103be565b9050919050565b600060608201905061046060008301866103e1565b61046d602083018561038c565b61047a60408301846103e1565b949350505050565b600082825260208201905092915050565b600061049e826104b1565b9050919050565b60008115159050919050565b600073ffffffffffffffffffffffffffffffffffffffff82169050919050565b6000819050919050565b7f4f776e61626c653a206e6577206f776e657220697320746865207a65726f206160008201527f6464726573730000000000000000000000000000000000000000000000000000602082015250565b7f4f776e61626c653a2063616c6c6572206973206e6f7420746865206f776e6572600082015250565b61055c81610493565b811461056757600080fd5b5056fea2646970667358221220eb3cf00972d748561f6c210995428db6f2164d6616e9ef843179c01f7e4b752864736f6c63430008030033",
  "linkReferences": {},
  "deployedLinkReferences": {}
}